:020000040800F2
:100000000080012071030008110400081104000899
:100010001104000811040008110400080000000089
:1000200000000000000000000000000011040008B3
:100030001104000800000000110400081104000869
:10004000110400081104000811040008110400083C
:10005000110400081104000811040008110400082C
:10006000110400081104000811040008110400081C
:10007000110400081104000811040008110400080C
:100080001104000811040008110400080000000019
:100090000000000000000000000000001104000843
:1000A00011040008110400081104000811040008DC
:1000B00011040008110400081104000811040008CC
:1000C00011040008110400081104000811040008BC
:1000D00011040008110400081104000800000000C9
:1000E00011040008110400081104000800000000B9
:1000F00000000000000000000000000011040008E3
:100100000000000011040008110400081104000898
:1001100000000000000000000000000000000000DF
:10012000110400081104000811040008110400085B
:1001300011040008000000000000000000000000A2
:100140000000000000000000000000001104000892
:10015000110400081104000811040008110400082B
:100160001104000811040008000000000000000055
:10017000000000000000000000000000000000007F
:100180000000000011040008000000000000000052
:04019000110400084E
:1001940010B5054C237833B9044B13B10448AFF3BD
:1001A40000800123237010BD000000200000000027
:1001B4001404000808B5034B1BB103490348AFF30B
:1001C400008008BD000000000400002014040008A2
:1001D40080B582B000AF0549054800F051F8786059
:1001E400002318460837BD4680BD00BF0074814E09
:1001F4000040804E4FF480314FF00007002800DBB0
:1002040005DA6FEA000000F101004FF0010700FB7E
:1002140001F04FF080414FF0010301EA00028A42ED
:100224004FEA510103F10103F7D14FF01001A1EBA3
:1002340003014FF07F054FF00706B14201DB07DCF5
:100244000DD00D44A6EB010100FA01F000F00AF80C
:100254000D44A1EB060120FA01F000F003F8354447
:1002640000F000F8404C04EA00004FEAC555284469
:10027400012F00D003D1A0F101006FEA000011DFCB
:100284004FF0FF4801EA080402EA0805AC4200D333
:1002940006D80B4611461A4601EA080402EA080584
:1002A4004FEAD4544FEAD555A4EB0503DFF8B880E0
:1002B40001EA080502EA08064FF4000845EA0805C1
:1002C40046EA080626FA03F64FF0004801EA080059
:1002D400884200D103D0284600F018F8054602EA07
:1002E4000800904200D103D0304600F00FF80646D3
:1002F400354405EA0800A84200D105D0284600F09C
:1003040005F8054640F0004000F000006FEA0000E8
:1003140000F10100F7464FF000034FF0004AAA45F0
:1003240000D304D803F101034FEA5A0AF7E7082B74
:1003340000D807D3A3F1080305FA03F5A4EB0304DB
:1003440000F007F8C3F1080325FA03F51C4400F094
:1003540000F84FEAC45440EA0400DFF80CA005EAB0
:100364000A0540EA0500F746FFFF7F00DFF874D076
:10037400002103E01C4B5B58435004311B481C4BC9
:1003840042189A42F6D31B4A02E0002342F8043B87
:10039400194B9A42F9D319494FF000620A604FF49D
:1003A4000E310A6842F001020A604FF000028A60CE
:1003B4000A68134B02EA03020A60124A4A600A6896
:1003C40022F480220A604FF00002CA600E490A68D3
:1003D40042F470020A60BFF34F8FBFF36F8FFFF7D1
:1003E400F7FEFEE70080012034040008000000202E
:1003F40000000020000000201C00002008ED00E0A8
:10040400FFFFF6FE1030002488ED00E0FEE7000058
:10041400F8B500BFF8BC08BC9E467047F8B500BFED
:08042400F8BC08BC9E467047BD
:04042C00B90100080A
:04043000950100082A
:04000005080003717B
:00000001FF
